:100000000C94B2000C94DA000C94DA000C94DA0030
:100010000C94DA000C94DA000C94DA000C94DA00F8
:100020000C94DA000C94DA000C94DA000C94DA00E8
:100030000C94DA000C94DA000C94DA000C94DA00D8
:100040000C9470020C94DA000C94E0020C94BA0246
:100050000C94DA000C94DA000C94DA000C94DA00B8
:100060000C94DA000C94DA0000407A10F35A00A0E5
:10007000724E18090010A5D4E80000E87648170071
:1000800000E40B54020000CA9A3B000000E1F505B1
:10009000000080969800000040420F000000A086FB
:1000A00001000000102700000000E803000000002D
:1000B0006400000000000A000000000001000000D1
:1000C00000002C76D888DC674F0823DFC1DFAE59EB
:1000D000E1B1B796E5E3E453C63AE651997696E87E
:1000E000E6C28426EB898C9B62ED407C6FFCEFBC02
:1000F0009C9F40F2BAA56FA5F490055A2AF75C932D
:100100006B6CF9676DC11BFCE0E40D47FEF520E662
:10011000B500D0ED902E0300943577050080841E45
:10012000080000204E0A000000C80C333333330FA0
:10013000986E12831141EF8D2114893BE65516CF3D
:10014000FEE6DB18D1844B381BF77C1D901DA4BB49
:10015000E424203284725E228100C9F124ECA1E5FE
:100160003D27820411241FBECFEFD8E0DEBFCDBFF4
:1001700011E0A0E0B1E0E0E8F6E102C005900D92E8
:10018000A434B107D9F721E0A4E4B1E001C01D9285
:10019000AE3EB207E1F710E0C2EBD0E004C0219719
:1001A000FE010E943D09C13BD107C9F70E9412031D
:1001B0000C943E0B0C940000AF92BF92CF92DF9252
:1001C000EF92FF920F931F93CF93DF936C017B010C
:1001D0008B01040F151FEB015E01AE18BF08C0179D
:1001E000D10759F06991D601ED91FC910190F08110
:1001F000E02DC6010995892B79F7C501DF91CF91D3
:100200001F910F91FF90EF90DF90CF90BF90AF9034
:100210000895FC01538D448D252F30E0842F90E00C
:10022000821B930B541710F0CF96089501970895F1
:10023000FC01918D828D981761F0A28DAE0FBF2FBA
:10024000B11D5D968C91928D9F5F9F73928F90E010
:1002500008958FEF9FEF08952FB7F894809149018B
:1002600090914A01A0914B01B0914C012FBF809316
:10027000550190935601A0935701B09358018DE416
:1002800091E00E94180197FF26C02FB7F894809143
:10029000490190914A01A0914B01B0914C012FBFAF
:1002A000409155015091560160915701709158014C
:1002B000841B950BA60BB70B409151015091520135
:1002C000609153017091540184179507A607B707F1
:1002D000B0F28FEF9FEF0895FC01918D828D9817FA
:1002E00031F0828DE80FF11D858D90E008958FEF3C
:1002F0009FEF0895FC01918D228D892F90E0805C05
:100300009F4F821B91098F73992708958DE491E087
:100310000E947A0121E0892B09F420E0822F0895C0
:1003200080E090E0892B29F00E94860181110C94D5
:1003300000000895FC01A48DA80FB92FB11DA35A88
:10034000BF4F2C91848D90E001968F739927848FF5
:10035000A689B7892C93A089B1898C918370806418
:100360008C93938D848D981306C00288F389E02DB9
:1003700080818F7D80830895EF92FF920F931F936A
:10038000CF93DF93EC0181E0888F9B8D8C8D981348
:100390001AC0E889F989808185FF15C09FB7F89454
:1003A000EE89FF896083E889F989808183708064A0
:1003B00080839FBF81E090E0DF91CF911F910F91EB
:1003C000FF90EF900895F62E0B8D10E00F5F1F4FFA
:1003D0000F731127E02E8C8D8E110CC00FB607FC09
:1003E000FACFE889F989808185FFF5CFCE010E9497
:1003F0009A01F1CFEB8DEC0FFD2FF11DE35AFF4F6A
:10040000F0829FB7F8940B8FEA89FB898081806224
:10041000CFCFCF93DF93EC01888D8823B9F0AA89E1
:10042000BB89E889F9898C9185FD03C0808186FDAF
:100430000DC00FB607FCF7CF8C9185FFF2CF8081FE
:1004400085FFEDCFCE010E949A01E9CFDF91CF91D8
:10045000089542E050E06CE171E08DE491E00C948D
:10046000DC00CF93DF93FC0101900020E9F7319786
:10047000AF01481B590BBC018DE491E00E94DC00E8
:10048000EC010E9429028C0F9D1FDF91CF910895EE
:100490000F931F93CF93DF93EC018881998100978D
:1004A00059F02A813B812617370730F081E0DF9130
:1004B000CF911F910F9108958B016F5F7F4F0E9425
:1004C000680A009759F0998388831B830A832C81DB
:1004D0003D81232B59F7FC011082E8CF80E0E7CF64
:1004E0001F920F920FB60F9211242F933F938F9369
:1004F0009F93AF93BF938091490190914A01A0913E
:100500004B01B0914C013091480123E0230F2D376E
:1005100058F50196A11DB11D209348018093490112
:1005200090934A01A0934B01B0934C0180914401F8
:1005300090914501A0914601B09147010196A11DFE
:10054000B11D8093440190934501A0934601B0935F
:100550004701BF91AF919F918F913F912F910F9044
:100560000FBE0F901F90189526E8230F0296A11D2D
:10057000B11DD2CF1F920F920FB60F9211242F935D
:100580003F934F935F936F937F938F939F93AF931B
:10059000BF93EF93FF938DE491E00E949A01FF9146
:1005A000EF91BF91AF919F918F917F916F915F91EB
:1005B0004F913F912F910F900FBE0F901F90189564
:1005C0001F920F920FB60F9211242F938F939F9328
:1005D000EF93FF93E0915D01F0915E018081E091E6
:1005E0006301F091640182FD1BC0908180916601DE
:1005F0008F5F8F7320916701821741F0E091660150
:10060000F0E0E35BFE4F958F80936601FF91EF91E1
:100610009F918F912F910F900FBE0F901F90189563
:100620008081F4CFCF93DF93CDB7DEB7AD970FB610
:10063000F894DEBF0FBECDBF789484B5826084BDD0
:1006400084B5816084BD85B5826085BD85B58160D6
:1006500085BD80916E00816080936E001092810054
:10066000809181008260809381008091810081600F
:1006700080938100809180008160809380008091D0
:10068000B10084608093B1008091B000816080935C
:10069000B00080917A00846080937A0080917A0023
:1006A000826080937A0080917A00816080937A00E2
:1006B00080917A00806880937A001092C100E09166
:1006C0005D01F0915E0182E08083E0915901F0913B
:1006D0005A011082E0915B01F0915C018FEC808304
:1006E00010926501E0916101F091620186E08083E2
:1006F000E0915F01F0916001808180618083E091F1
:100700005F01F0916001808188608083E0915F01EA
:10071000F0916001808180688083E0915F01F091B9
:10072000600180818F7D808384E6882E912CA12CAE
:10073000B12C90E0C92E90E0D92E8DE491E00E947A
:100740007A01181619060CF0C4C019A618A61BA623
:100750001AA61DA61CA670E060E0CE0188960E9435
:10076000480228A539A581112EC02115310519F09F
:10077000C9010E94DF0919A618A61DA61CA61BA662
:100780001AA60E942C010CA51DA597FD24C08A3035
:10079000910509F189831A820F5F1F4FB801CE01BD
:1007A00088960E944802882361F328A539A58CA564
:1007B0009DA5BE016F5F7F4F820F931F0E94370B75
:1007C0001DA70CA7DECF1DA61CA66EE171E0C90116
:1007D0000E94370BD6CF012B61F06FE171E088A545
:1007E00099A50E942E0B892B21F483E291E00E94AF
:1007F00031028CA59DA5892B09F455C064E371E0F5
:1008000088A599A50E942E0B892B09F04CC00E9447
:1008100019051BA21AA21DA21CA21FA21EA2A5019D
:1008200094010E9436080E94AA0720E030E048ECBC
:1008300052E40E94D1088E010F5F1F4F22E044E076
:100840000E94AF047C01009709F456C0FC0101909E
:100850000020E9F731978F01081B190BB801CE0171
:1008600082960E9448022AA13BA181113EC0211517
:10087000310519F0C9010E94DF091BA21AA21FA2AB
:100880001EA21DA21CA24EA15FA16AA17BA18DE4A4
:1008900091E00E94DC000E9429028AA19BA100979E
:1008A00011F00E94DF098CA59DA5892B61F069E3F9
:1008B00071E088A599A50E942E0B892B21F48EE367
:1008C00091E00E94310288A599A5009711F00E943D
:1008D000DF09C114D10409F430CF0E9486018823B6
:1008E00009F42BCF0E94000028CF1FA30EA3B7014D
:1008F000C9010E94370BC7CF8AA19BA1009709F0BD
:10090000BACFBBCFEDE4F1E01382128288EE93E020
:10091000A0E0B0E084839583A683B7838EE091E066
:100920009183808385EC90E09587848784EC90E0C8
:100930009787868780EC90E0918B808B81EC90E0AC
:10094000938B828B82EC90E0958B848B86EC90E08D
:10095000978B868B118E128E138E148E0895EF92C4
:100960000F931F93CF93DF93E80134E047FD34E109
:10097000042E000C550B57FF03C0519541955109AA
:10098000E32E022F242FAE010E947105CE01DF91CC
:10099000CF911F910F91EF9008958F929F92AF92F8
:1009A000BF92CF92DF92EF92FF92CF93DF93EC0151
:1009B000688179818A819B81611571058105910525
:1009C00021F464E279ED8BE597E02DE133EF41E02E
:1009D00050E00E94360849015A019B01AC01A7EA88
:1009E000B1E40E9455086B017C01ACEEB4EFA501A7
:1009F00094010E946308C60ED71EE81EF91EF7FE7A
:100A000006C081E0C81AD108E10880E8F80AC88267
:100A1000D982EA82FB82C701B6019F77DF91CF912D
:100A2000FF90EF90DF90CF90BF90AF909F908F900E
:100A300008958F929F92AF92BF92CF92DF92EF92E2
:100A4000FF926091000170910101809102019091EB
:100A50000301611571058105910521F464E279EDC9
:100A60008BE597E02DE133EF41E050E00E9436083E
:100A700049015A019B01AC01A7EAB1E40E94550863
:100A80006B017C01ACEEB4EFA50194010E946308F8
:100A9000C60ED71EE81EF91EF7FE06C081E0C81A72
:100AA000D108E10880E8F80AC0920001D092010163
:100AB000E0920201F0920301C701B6019F77FF9017
:100AC000EF90DF90CF90BF90AF909F908F90089560
:100AD00060930001709301018093020190930301E0
:100AE0000895A9E0B0E0E7E7F5E00C946E086A012C
:100AF000F22EB02E102FFBE3AF2EA01608F41BE34E
:100B00001F5F012F27E0AE014F5F5F4F0E94D006AD
:100B1000BC018981982F9970913009F43FC09BE204
:100B2000E1FC04C09E2D9170E0FC3AC05E2D507136
:100B3000E82FE87083FF46C084E0911101C083E094
:100B4000EF2DE81B8F1508F0E0E0D6018E2F20E294
:100B5000552351F1992329F0D6019C93C6010196A2
:100B60006C0196012D5F3F4FE2FE24C08EE4D6015A
:100B70008C9391E411969C93119712968C93D901C2
:100B80008E2F90E281111BC0E20FF32FF11D108216
:100B90008EEF9FEF2996ECE00C948A089DE2C6CF79
:100BA00090E2C4CF2D9381508111FCCFCE0ED11C89
:100BB000E0E0D0CF8EE6D6018C9391E6DBCF9D931B
:100BC0008150E0CF482F447082FF3DC084E09111F6
:100BD00001C083E08F1510F4EF2DE81BD6018E2F96
:100BE00020E2552309F1992329F0D6019C93C601EF
:100BF00001966C0196012D5F3F4FE2FE1BC089E418
:100C0000D6018C938EE411968C93119786E41296FC
:100C10008C93D9018E2F90E2882309F4B5CF9D9350
:100C20008150FACF2D9381508111FCCFCE0ED11C73
:100C3000E0E0D9CF89E6D6018C938EE611968C93AD
:100C4000119786E6E4CF9B0177FF02C030E020E0F9
:100C5000A1E0B0E0911102C0B0E0A0E0F90131964E
:100C6000AE0FBF1F8B2C912CBB2009F461C0540127
:100C7000EFEFAE1ABE0AAA0DBB1DFA161B0619F03D
:100C800014F04F2D4A1B511188C0E3FC59C0760166
:100C9000A42FB0E2A1114FC0C40ED11C992309F4B6
:100CA0005BC040E0D6011196F60190836D0155239B
:100CB00009F448C0012F060F9A81582F507184FF04
:100CC00003C0913309F4015010160CF047C00930ED
:100CD00008F008E0EEE2FE2E5B01A01AB1088501E3
:100CE0009194819491082F3F320729F4D601FC9208
:100CF000F60131966F016217730794F1021713071B
:100D00007CF5DB01A21BB30BAA24A394B12CAC0E7F
:100D1000BD1EAA0DBB1D11968C9121503109D60123
:100D2000119628153905F4F0F60180836D01DBCFAB
:100D3000B12CA12CA0CFF701B1937F01A150AACF74
:100D40009111B0CFD601942F50E302C05D93915022
:100D50009111FCCFC40ED11C40E0ACCF01E0BACF62
:100D600080E3DBCF6217730731F4963388F4953351
:100D700011F4552369F0F6018083FD01842F90E280
:100D8000811108C0A40FB11D1C9290E080E002CF39
:100D900081E3F1CF91938150F3CF911183CF8ACF2B
:100DA000283008F027E03327DA01990F311D87FD3D
:100DB000916000966105710539F432602E5F3D93B4
:100DC00030E32A95E1F708959F3F30F080387105B0
:100DD000610509F03C5F3C5F3D93913008F080680D
:100DE000911DDF93CF931F930F93FF92EF92192FD3
:100DF000987F9695E92F96959695E90FFF27EE53E4
:100E0000FF4F99273327EE24FF24A701E701059020
:100E10000894079428F4360FE71EF81E491F511D49
:100E2000660F771F881F991F0694A1F705900794F6
:100E300028F4E70EF81E491F561FC11D770F881FA3
:100E4000991F661F0694A1F70590079428F4F80EE1
:100E5000491F561FC71FD11D880F991F661F771F77
:100E60000694A1F70590079420F4490F561FC71F59
:100E7000D81F990F661F771F881F0694A9F78491C2
:100E80001095177041F0D695C79557954795F794EB
:100E9000E7941A95C1F7E8E6F0E06894159015918B
:100EA00035916591959105907FE27395E118F10A6E
:100EB000430B560BC90BD009C0F7E10CF11E431FC1
:100EC000561FC91FD01D7EF4703311F48A95E6CFEA
:100ED000E894015030F0080F0AF40027021708F4D4
:100EE000202F2395022F7A3328F079E37D932A95DA
:100EF000E9F710C07D932A9589F606949795679532
:100F0000379517951794E118F10A430B560BC90B47
:100F1000D00998F023957E9173957A3308F070E3A9
:100F20007C932013B8F77E9170617D9330F08395A8
:100F300071E37D9370E32A95E1F71124EF90FF9020
:100F40000F911F91CF91DF91992787FD909508957B
:100F5000E89409C097FB3EF4909580957095619553
:100F60007F4F8F4F9F4F9923A9F0F92F96E9BB2709
:100F70009395F695879577956795B795F111F8CF85
:100F8000FAF4BB0F11F460FF1BC06F5F7F4F8F4FF0
:100F90009F4F16C0882311F096E911C0772321F0E6
:100FA0009EE8872F762F05C0662371F096E8862F7E
:100FB00070E060E02AF09A95660F771F881FDAF7D5
:100FC000880F9695879597F9089597F99F6780E818
:100FD00070E060E008959FEF80EC089500240A948B
:100FE0001616170618060906089500240A94121604
:100FF0001306140605060895092E0394000C11F437
:10100000882352F0BB0F40F4BF2B11F460FF04C0E3
:101010006F5F7F4F8F4F9F4F089557FD9058440F3C
:10102000551F59F05F3F71F04795880F97FB991F47
:1010300061F09F3F79F08795089512161306140604
:10104000551FF2CF4695F1DF08C016161706180691
:10105000991FF1CF86957105610508940895E8946C
:10106000BB2766277727CB0197F90895052E97FBB5
:101070001EF400940E944D0857FD07D00E949F085F
:1010800007FC03D04EF40C944D08509540953095D4
:1010900021953F4F4F4F5F4F0895909580957095E4
:1010A00061957F4F8F4F9F4F08950E94C108A59F64
:1010B000900DB49F900DA49F800D911D1124089553
:1010C000B7FF0C9455080E945508821B930B089596
:1010D0002F923F924F925F926F927F928F929F9248
:1010E000AF92BF92CF92DF92EF92FF920F931F9336
:1010F000CF93DF93CDB7DEB7CA1BDB0B0FB6F894E7
:10110000DEBF0FBECDBF09942A88398848885F8426
:101110006E847D848C849B84AA84B984C884DF8097
:10112000EE80FD800C811B81AA81B981CE0FD11D7B
:101130000FB6F894DEBF0FBECDBFED010895A1E25A
:101140001A2EAA1BBB1BFD010DC0AA1FBB1FEE1F41
:10115000FF1FA217B307E407F50720F0A21BB30B8C
:10116000E40BF50B661F771F881F991F1A9469F708
:1011700060957095809590959B01AC01BD01CF0164
:101180000895A29FB001B39FC001A39F700D811D60
:101190001124911DB29F700D811D1124911D089580
:1011A0005058BB27AA270E94E8080C94FC070E940D
:1011B000EE0738F00E94F50720F039F49F3F19F44C
:1011C00026F40C94EB070EF4E095E7FB0C94E5078E
:1011D000E92F0E940D0858F3BA17620773078407B6
:1011E000950720F079F4A6F50C942F080EF4E095FD
:1011F0000B2EBA2FA02D0B01B90190010C01CA01D1
:10120000A0011124FF27591B99F0593F50F4503E7B
:1012100068F11A16F040A22F232F342F4427585F6D
:10122000F3CF469537952795A795F0405395C9F785
:101230007EF41F16BA0B620B730B840BBAF091503D
:10124000A1F0FF0FBB1F661F771F881FC2F70EC0DC
:10125000BA0F621F731F841F48F4879577956795AF
:10126000B795F7959E3F08F0B0CF9395880F08F09B
:101270009927EE0F979587950895EE0FFF1F05901C
:10128000F491E02D09940F931F93CF93DF93823055
:10129000910510F482E090E0E091EC01F091ED0115
:1012A00030E020E0B0E0A0E0309799F4211531055E
:1012B00009F44AC0281B390B24303105D8F58A813E
:1012C0009B816115710589F1FB0193838283FE0186
:1012D00011C0408151810281138148175907E0F004
:1012E0004817590799F4109761F012960C931297CA
:1012F00013961C933296CF01DF91CF911F910F91DE
:1013000008950093EC011093ED01F4CF2115310500
:1013100051F04217530738F0A901DB019A01BD01D2
:10132000DF01F801C1CFEF01F9CF9093ED01809378
:10133000EC01CDCFFE01E20FF31F81939193225078
:10134000310939832883D7CF2091EA013091EB010D
:10135000232B41F420910601309107013093EB01DA
:101360002093EA01209104013091050121153105F6
:1013700041F42DB73EB74091080150910901241B5B
:10138000350BE091EA01F091EB01E217F307A0F4CD
:101390002E1B3F0B2817390778F0AC014E5F5F4FCB
:1013A0002417350748F04E0F5F1F5093EB01409311
:1013B000EA01819391939FCFF0E0E0E09CCFCF933F
:1013C000DF930097E9F0FC01329713821282A0911B
:1013D000EC01B091ED01ED0130E020E01097A1F4B7
:1013E00020813181820F931F2091EA013091EB011E
:1013F0002817390709F061C0F093EB01E093EA0187
:10140000DF91CF910895EA01CE17DF07E8F54A8111
:101410005B819E0141155105B1F7E901FB83EA8328
:1014200049915991C40FD51FEC17FD0761F48081D4
:1014300091810296840F951FE901998388838281A7
:1014400093819B838A83F0E0E0E012968D919C91DA
:1014500013970097B9F52D913C911197CD01029604
:10146000820F931F2091EA013091EB012817390771
:1014700039F6309751F51092ED011092EC01B093CE
:10148000EB01A093EA01BCCFD383C2834081518199
:10149000840F951FC817D90761F44E5F5F4F88818D
:1014A0009981480F591F518340838A819B8193837F
:1014B00082832115310509F0B0CFF093ED01E0935F
:1014C000EC019ECFFD01DC01C0CF13821282D7CF89
:1014D000B0E0A0E0EEE6FAE00C946A088C01009718
:1014E00051F4CB010E9443098C01C801CDB7DEB78E
:1014F000E0E10C948608FC01E60FF71F9C012250E6
:101500003109E217F30708F49DC0D901CD91DC91B0
:101510001197C617D70798F0C530D10530F3CE0123
:1015200004978617970708F3C61BD70B2297C1931A
:10153000D1936D937C93CF010E94DF09D6CF5B01DD
:10154000AC1ABD0A4C018C0E9D1EA091EC01B0910D
:10155000ED01512C412CF12CE12C109731F58091AB
:10156000EA019091EB018815990509F05CC04616D7
:10157000570608F058C0809104019091050100972A
:1015800041F48DB79EB74091080150910901841B29
:10159000950BE817F90708F055C0F093EB01E093BD
:1015A000EA01F90171836083A0CF8D919C9111971D
:1015B00012966C90129713967C901397A815B90504
:1015C00059F56C0142E0C40ED11CCA14DB0420F1B1
:1015D000AC014A195B09DA011296159780F0628214
:1015E000738251834083D9016D937C93E114F1049C
:1015F00071F0D7011396FC93EE93129776CF229653
:101600008C0F9D1FF90191838083F301EFCFF0933D
:10161000ED01E093EC0169CF4816590608F42C015E
:101620007D01D3019ACFCB010E9443097C01009731
:1016300049F0AE01B8010E94250BC8010E94DF09E4
:10164000870153CF10E000E050CFFB01DC0102C066
:1016500001900D9241505040D8F70895FB01DC01F4
:101660008D91019080190110D9F3990B0895FB0118
:10167000DC0101900D920020E1F70895F894FFCF6E
:10168000010000000000EE01800000000000BC012D
:10169000DC00090109027A0118016C010D0A0049F8
:1016A000444E00544553545F4445564943455F39C1
:1016B000333131004D454153004558495400434CA6
:0416C0004F5345003F
:00000001FF
